:1000000019C020C01FC01EC01DC01CC01BC01AC00C
:1000100019C018C017C016C015C014C013C012C034
:1000200011C010C00FC00EC00DC00CC00BC00AC064
:1000300009C008C011241FBECFEFD2E0DEBFCDBF84
:1000400092D1F2C1DDCF88ED86BF10926100089594
:1000500087E081B915B88FEF89B9089589E08DB926
:1000600081E58CBD08958EBD0DB407FEFDCF0895CA
:100070000F93082F613089F4E5B121E030E040E0D2
:1000800050E060E070E080E090E0B5D1E22BE5B9AF
:1000900086B12095282326B90DC0E5B121E030E0D6
:1000A00040E050E060E070E080E090E0A4D1209576
:1000B000E223E5B90F910895CF93DF93EB01DF7051
:1000C00090E09927869597958827905DC82BD92B26
:1000D00061E081E0CDDF8D2FC6DF8C2FC4DF60E0D3
:1000E00081E0C6DFDF91CF910895CF93DF938295B2
:1000F000880F807EC0EDC80F61E080E0B9DF8C2FF3
:10010000B2DF8EB590E0C92FD82F80E0ACDF8EB57E
:10011000C82B60E080E0ACDFCE01DF91CF91089585
:1001200082B1846082B982E08A95F1F700C082B121
:100130008B7F82B98AE68A95F1F700C00895CF9344
:1001400082B18D7F82B982B18E7F82B982B18B7F7D
:1001500082B98FE295E70197F1F700C00000C8E38C
:10016000CAB9DEDF8FE097E20197F1F700C0000027
:10017000CAB9D6DF87EC90E00197F1F700C0000024
:10018000CAB9CEDF8CE08AB9CBDF87E08AB9C8DF95
:1001900081E08AB9C5DF8FE99FE00197F1F700C0E0
:1001A0000000CF91089592B19E7F92B980688AB97C
:1001B000B7DF089592B1916092B98AB9B1DF08951D
:1001C000EF92FF920F931F93CF93DF93E82F492F66
:1001D0007B01C0E1D7E220E030E013C08701020FCD
:1001E000131F8E2F942FBE01DFD0605DF801608356
:1001F000E82F492F2F5F3F4FCE016AE070E0E8D033
:10020000EB012530310554F3DF91CF911F910F9110
:10021000FF90EF900895CF93DF93DC018C918033B2
:1002200011F480E28C9325E030E00BC0F9013196A7
:10023000EA0FFB1FED01C20FD31F8881808321507D
:1002400031092230310594F78CE212968C93DF91BC
:10025000CF910895CF92DF92EF92FF920F931F9369
:10026000CF93DF93CDB7DEB768970FB6F894DEBFB4
:100270000FBECDBF6B017A018901BE016F5F7F4F59
:100280009FDFBE01695F7F4FC6019ADFBE01635FDA
:100290007F4FC70195DFBE016D5E7F4FC80190DFC4
:1002A000CE010196B8DFCE010796B5DFCE010D96DF
:1002B000B2DFCE014396AFDF80E075DF00E010E0F3
:1002C0000AC0E1E0F0E0EC0FFD1FE00FF11F8081BC
:1002D00071DF0F5F1F4F063011059CF389E063DF6C
:1002E00000E010E00AC0E7E0F0E0EC0FFD1FE00FD7
:1002F000F11F80815FDF0F5F1F4F063011059CF3F8
:1003000080E451DF00E010E00AC0EDE0F0E0EC0F27
:10031000FD1FE00FF11F80814DDF0F5F1F4F063083
:1003200011059CF389E43FDF00E010E00AC0E3E13F
:10033000F0E0EC0FFD1FE00FF11F80813BDF0F5F4E
:100340001F4F063011059CF368960FB6F894DEBF78
:100350000FBECDBFDF91CF911F910F91FF90EF9016
:10036000DF90CF9008956FDE73DE78DEE8DE60EA1E
:100370007FE081E0A1DE60EA7FE080E09DDE81E059
:10038000B4DEEC01CC0FDD1FCC0FDD1FC80FD91F71
:1003900080E0ABDE9C013695279540ED57E0BE012D
:1003A00080E29EE457DFE3CFAA1BBB1B51E107C0ED
:1003B000AA1FBB1FA617B70710F0A61BB70B881FF5
:1003C000991F5A95A9F780959095BC01CD01089584
:1003D00097FB072E16F4009406D077FD08D0E4DFD3
:1003E00007FC05D03EF4909581959F4F0895709538
:1003F00061957F4F08950F93083090F0982F872FC5
:10040000762F652F542F432F322F22270850F4CFF9
:10041000220F331F441F551F661F771F881F991F08
:0C0420000A95B2F70F910895F894FFCFF1
:00000001FF
