:1000000027C036C035C034C0C8C132C031C030C0CE
:100010002FC02EC02DC02CC02BC02AC029C028C084
:1000200027C026C025C024C023C022C021C020C0B4
:100030001FC01EC0DDC1E8C1EDC1F3C10BC210C2BB
:1000400015C236C241C246C24CC264C269C26EC247
:1000500011241FBECFEFD2E0DEBFCDBF21E0A0E074
:10006000B1E001C01D92AA30B207E1F73DD125C32E
:10007000C7CF8DE08A95F1F7000082B1846082B924
:100080008DE08A95F1F7000082B18B7F82B98AE614
:100090008A95F1F700C00895CF9382B18E7F82B91F
:1000A00082B18B7F82B98FE295E70197F1F700C0AB
:1000B0000000C8E3CAB9DDDF8FE097E20197F1F7EE
:1000C00000C00000CAB9D5DF87EC90E00197F1F7D6
:1000D00000C00000CAB9CDDF8DE08AB9CADF84E074
:1000E0008AB9C7DF81E08AB9C4DF8FE99FE0019751
:1000F000F1F700C00000CF91089592B19E7F92B9B0
:1001000080688AB9B6DF089592B1916092B98AB9D0
:10011000B0DF0895EF92FF920F931F93CF93DF9379
:10012000E82F492F7B01C0E1D7E220E030E013C087
:100130008701020F131F8E2F942FBE017ED2605DA8
:10014000F8016083E82F492F2F5F3F4FCE016AE00F
:1001500070E087D2EB012530310554F3DF91CF9168
:100160001F910F91FF90EF900895CF93DF93DC01E3
:100170008C91803311F480E28C9325E030E009C04B
:10018000FD01E20FF31FEF01219788818083215049
:10019000310923303105A4F78CE212968C93DF915C
:1001A000CF910895CF92DF92EF92FF920F931F931A
:1001B000CF93DF93CDB7DEB768970FB6F894DEBF65
:1001C0000FBECDBF6B017A018901BE016F5F7F4F0A
:1001D000A1DFBE01695F7F4FC6019CDFBE01635F87
:1001E0007F4FC70197DFBE016D5E7F4FC80192DF71
:1001F000CE010196BADFCE010796B7DFCE010D968C
:10020000B4DFCE014396B1DF82B18E7F82B982E046
:100210008AB92FDF80E071DF00E010E00AC0E1E082
:10022000F0E0EC0FFD1FE00FF11F80816DDF0F5F2D
:100230001F4F063011059CF386E566DF89E05DDF20
:1002400000E010E00AC0E7E0F0E0EC0FFD1FE00F77
:10025000F11F808159DF0F5F1F4F063011059CF39E
:1002600086E552DF80E449DF00E010E00AC0EDE0FF
:10027000F0E0EC0FFD1FE00FF11F808145DF0F5F05
:100280001F4F063011059CF381E43EDF89E435DF22
:1002900000E010E00AC0E3E1F0E0EC0FFD1FE00F2A
:1002A000F11F808131DF0F5F1F4F063011059CF376
:1002B00081E42ADF68960FB6F894DEBF0FBECDBF8B
:1002C000DF91CF911F910F91FF90EF90DF90CF9032
:1002D000089588ED86BF10926100089587E081B986
:1002E00015B88FEF89B90895F4DFF8DF44D1D4DE73
:1002F0003FD0109207011092060184EF91E0909395
:10030000050180930401809106019091070165E049
:1003100070E093D181E05DD160910401709105019D
:10032000660F771F80E055D181E06CD19C01220FD0
:10033000331F220F331F820F931F9093030180936B
:10034000020180E05FD19C01369527953093010131
:100350002093000140910401509105016091020138
:100360007091030180910601909107011BDFCBCFB3
:10037000ECE6F0E080818460808380818860808307
:10038000808180618083808180628083E8E6F0E004
:10039000808182608083789408951F920F920FB6B7
:1003A0000F9211242F933F934F935F938F939F93BB
:1003B000AF93BF93EF93FF9384B182FB222720F981
:1003C00084B183FB332730F984B184FB552750F97E
:1003D00084B185FB442740F9E09109018E2F90E01C
:1003E0008730910508F058C0FC01E65EFF4F099484
:1003F000211104C081E0809309014EC031114CC02D
:1004000084E08093090148C0311146C082E08093A6
:10041000090142C0222309F43FC083E0809309010F
:100420003BC02223C9F13323B9F110920901809115
:100430000601909107014996909307018093060168
:1004400081329E4448F180E29EE4909307018093BC
:10045000060122C0211120C085E0809309011CC043
:100460003323D1F086E08093090116C02223A1F046
:10047000332391F0109209018091060190910701B8
:100480004997909307018093060181329E4420F0A2
:100490001092070110920601E09108018E2F90E062
:1004A0008730910508F058C0FC01EF5DFF4F0994BB
:1004B000511104C081E0809308014EC041114CC02D
:1004C00084E08093080148C0411146C082E08093D7
:1004D000080142C0552309F43FC083E0809308011E
:1004E0003BC05523C9F14423B9F110920801809112
:1004F00004019091050101969093050180930401F8
:10050000813D974048F180ED97E0909305018093FD
:10051000040122C0511120C085E0809308011CC055
:100520004423D1F086E08093080116C05523A1F042
:10053000442391F0109208018091040190910501EB
:1005400001979093050180930401813D974020F02D
:100550001092050110920401FF91EF91BF91AF91AC
:100560009F918F915F914F913F912F910F900FBE6F
:100570000F901F90189589E08DB981E58CBD089585
:100580008EBD0DB407FEFDCF08950F93082F613087
:1005900089F4E5B121E030E040E050E060E070E057
:1005A00080E090E071D0E22BE5B986B12095282358
:1005B00026B90DC0E5B121E030E040E050E060E058
:1005C00070E080E090E060D02095E223E5B90F91E3
:1005D0000895CF93DF93EB01DF7090E09927869524
:1005E00097958827905DC82BD92B61E081E0CDDFFE
:1005F0008D2FC6DF8C2FC4DF60E081E0C6DFDF9186
:10060000CF910895CF93DF938295880F807EC0EDC0
:10061000C80F61E080E0B9DF8C2FB2DF8EB590E0CB
:10062000C92FD82F80E0ACDF8EB5C82B60E080E00A
:10063000ACDFCE01DF91CF910895AA1BBB1B51E126
:1006400007C0AA1FBB1FA617B70710F0A61BB70B42
:10065000881F991F5A95A9F780959095BC01CD01E7
:10066000089597FB072E16F4009406D077FD08D066
:10067000E4DF07FC05D03EF4909581959F4F0895E7
:10068000709561957F4F08950F93083090F0982FE3
:10069000872F762F652F542F432F322F2227085074
:1006A000F4CF220F331F441F551F661F771F881F6B
:0E06B000991F0A95B2F70F910895F894FFCFA5
:00000001FF
