:1000000019C028C027C026C098C124C023C022C060
:1000100021C020C01FC01EC01DC01CC01BC01AC0F4
:1000200019C018C017C016C015C014C013C012C024
:1000300011C010C011241FBECFEFD2E0DEBFCDBF74
:1000400021E0A0E0B1E001C01D92A830B207E1F7C5
:1000500042D110C2D5CF88ED86BF109261000895BD
:1000600087E081B915B88FEF89B9089589E08DB916
:1000700081E58CBD08958DE08A95F1F7000086B189
:10008000826086B98DE08A95F1F7000086B18D7F98
:1000900086B98AE68A95F1F700C00895CF9386B1B4
:1000A0008E7F86B986B18D7F86B98FE295E70197FD
:1000B000F1F700C00000C8E3CAB9DDDF8FE097E2C6
:1000C0000197F1F700C00000CAB9D5DF87EC90E0D6
:1000D0000197F1F700C00000CAB9CDDF8DE08AB901
:1000E000CADF84E08AB9C7DF81E08AB9C4DF8FE95B
:1000F0009FE00197F1F700C00000CF91089596B1FD
:100100009E7F96B980688AB9B6DF089596B19160EE
:1001100096B98AB9B0DF0895EF92FF920F931F93BB
:10012000CF93DF93E82F492F7B01C0E1D7E220E096
:1001300030E013C08701020F131F8E2F942FBE01D2
:1001400072D1605DF8016083E82F492F2F5F3F4F28
:10015000CE016AE070E07BD1EB012530310554F32C
:10016000DF91CF911F910F91FF90EF900895CF9362
:10017000DF93DC018C91803311F480E28C9325E0D5
:1001800030E009C0FD01E20FF31FEF0121978881E4
:1001900080832150310923303105A4F78CE2129677
:1001A0008C93DF91CF910895CF92DF92EF92FF92DF
:1001B0000F931F93CF93DF93CDB7DEB768970FB63A
:1001C000F894DEBF0FBECDBF6B017A018901BE017D
:1001D0006F5F7F4FA1DFBE01695F7F4FC6019CDF6C
:1001E000BE01635F7F4FC70197DFBE016D5E7F4F2A
:1001F000C80192DFCE010196BADFCE010796B7DFC4
:10020000CE010D96B4DFCE014396B1DF86B18E7F6D
:1002100086B982E08AB92FDF80E071DF00E010E06C
:100220000AC0E1E0F0E0EC0FFD1FE00FF11F80815C
:100230006DDF0F5F1F4F063011059CF386E566DF0B
:1002400089E05DDF00E010E00AC0E7E0F0E0EC0FDD
:10025000FD1FE00FF11F808159DF0F5F1F4F063038
:1002600011059CF386E552DF80E449DF00E010E0F1
:100270000AC0EDE0F0E0EC0FFD1FE00FF11F808100
:1002800045DF0F5F1F4F063011059CF381E43EDF11
:1002900089E435DF00E010E00AC0E3E1F0E0EC0FB4
:1002A000FD1FE00FF11F808131DF0F5F1F4F063010
:1002B00011059CF381E42ADF68960FB6F894DEBF3F
:1002C0000FBECDBFDF91CF911F910F91FF90EF90A7
:1002D000DF90CF900895BFDEC3DEC8DE83E085B92E
:1002E000DDDEECE6F0E080818460808380818061E7
:1002F0008083E8E6F0E0808182608083789480E10A
:1003000097E2909307018093060188EE93E0909323
:100310000501809304012091000130910101409179
:1003200004015091050160910201709103018091D7
:1003300006019091070138DFEECF1F920F920FB6A2
:100340000F9211242F933F934F938F939F9384B1D8
:1003500082FB992790F982FF2CC09923A9F083FD95
:1003600013C02091060130910701275E3F4F309363
:1003700007012093060121323E4430F020E23EE4A2
:100380003093070120930601992399F083FF11C050
:10039000209106013091070129513109309307015D
:1003A0002093060121323E4420F010920701109262
:1003B000060184FB992790F984FF2BC09923A9F0AB
:1003C00085FD13C020910401309105012F5F3F4F3F
:1003D0003093050120930401213D374030F020ED9A
:1003E00037E03093050120930401992391F085FFB4
:1003F00010C080910401909105010197909305012F
:1004000080930401813D974020F0109205011092E5
:1004100004019F918F914F913F912F910F900FBEAB
:100420000F901F901895AA1BBB1B51E107C0AA1F74
:10043000BB1FA617B70710F0A61BB70B881F991F85
:100440005A95A9F780959095BC01CD01089597FB29
:10045000072E16F4009406D077FD08D0E4DF07FCE1
:1004600005D03EF4909581959F4F089570956195C4
:080470007F4F0895F894FFCFBF
:00000001FF
