S0130000506F776572537570706C792E7372656377
S113000019C020C01FC01EC01DC01CC01BC01AC008
S113001019C018C017C016C015C014C013C012C030
S113002011C010C00FC00EC00DC00CC00BC00AC060
S113003009C008C011241FBECFEFD2E0DEBFCDBF80
S113004017D01CC0DDCF88ED86BF109261000895E3
S113005087E081B915B88FEF89B9089589E08DB922
S113006081E58CBD08958EBD0DB407FEFDCF0895C6
S1130070EADFEEDFF3DF8EB5F6DFFDCFF894FFCFD6
S9030000FC
