S0130000506F776572537570706C792E7372656377
S113000019C020C01FC01EC01DC01CC01BC01AC008
S113001019C018C017C016C015C014C013C012C030
S113002011C010C00FC00EC00DC00CC00BC00AC060
S113003009C008C011241FBECFEFD2E0DEBFCDBF80
S1130040B4D0E0C0DDCF88ED86BF10926100089582
S113005087E081B915B88FEF89B9089589E08DB922
S113006081E58CBD08958EBD0DB407FEFDCF0895C6
S11300700F93082F613089F4E5B121E030E040E0CE
S113008050E060E070E080E090E0A3D0E22BE5B9BE
S113009086B12095282326B90DC0E5B121E030E0D2
S11300A040E050E060E070E080E090E092D0209585
S11300B0E223E5B90F910895CF93DF93EB01DF704D
S11300C090E09927869597958827905DC82BD92B22
S11300D061E081E0CDDF8D2FC6DF8C2FC4DF60E0CF
S11300E081E0C6DFDF91CF910895CF93DF938295AE
S11300F0880F807EC0EDC80F61E080E0B9DF8C2FEF
S1130100B2DF8EB590E0C92FD82F80E0ACDF8EB57A
S1130110C82B60E080E0ACDFCE01DF91CF91089581
S113012082B1846082B982E08A95F1F700C082B11D
S11301308B7F82B987EC90E00197F1F700C0000053
S11301400895CF9382B18D7F82B982B18E7F82B9B7
S113015082B18B7F82B98FE295E70197F1F700C0F6
S11301600000C8E3CAB9DCDF8FE097E20197F1F73A
S113017000C00000CAB9D4DF87EC90E00197F1F722
S113018000C00000CAB9CCDF8CE08AB9C9DF87E0BF
S11301908AB9C6DF81E08AB9C3DF8FE99FE001979E
S11301A0F1F700C00000CF9108954DDF51DF56DF15
S11301B0C8DF60EA7FE081E07FDF60EA7FE080E023
S11301C07BDF81E092DF80E090DF87E083B982B952
S11301D0F0CF0F93083090F0982F872F762F652F4C
S11301E0542F432F322F22270850F4CF220F331FCE
S11301F0441F551F661F771F881F991F0A95B2F762
S10B02000F910895F894FFCF5B
S9030000FC
