S0130000506F776572537570706C792E7372656377
S113000019C020C01FC01EC077C11CC01BC01AC0AD
S113001019C018C017C016C015C014C013C012C030
S113002011C010C00FC00EC00DC00CC00BC00AC060
S113003009C008C011241FBECFEFD2E0DEBFCDBF80
S113004041D191C1DDCF88ED86BF10926100089542
S113005087E081B915B88FEF89B9089589E08DB922
S113006081E58CBD08958DE08A95F1F7000086B195
S1130070846086B98DE08A95F1F7000086B18B7FA4
S113008086B98AE68A95F1F700C00895CF9386B1C0
S11300908D7F86B986B18E7F86B986B18B7F86B90E
S11300A08FE295E70197F1F700C00000C8E3CAB9F1
S11300B0DADF8FE097E20197F1F700C00000CAB9D8
S11300C0D2DF87EC90E00197F1F700C00000CAB9D5
S11300D0CADF8DE08AB9C7DF84E08AB9C4DF81E072
S11300E08AB9C1DF8FE99FE00197F1F700C00000F2
S11300F0CF91089596B19E7F96B980688AB9B3DF8F
S1130100089596B1916096B98AB9ADDF0895EF92DA
S1130110FF920F931F93CF93DF93E82F492F7B0117
S1130120C0E1D7E220E030E013C08701020F131FC3
S11301308E2F942FBE01F0D0605DF8016083E82F0C
S1130140492F2F5F3F4FCE016AE070E0F9D0EB01F9
S11301502530310554F3DF91CF911F910F91FF901A
S1130160EF900895CF93DF93DC018C91803311F4E9
S113017080E28C9325E030E00BC0F9013196EA0F60
S1130180FB1FED01C20FD31F8881808321503109E9
S11301902230310594F78CE212968C93DF91CF9143
S11301A00895CF92DF92EF92FF920F931F93CF9314
S11301B0DF93CDB7DEB768970FB6F894DEBF0FBEF6
S11301C0CDBF6B017A018901BE016F5F7F4F9FDF55
S11301D0BE01695F7F4FC6019ADFBE01635F7F4F37
S11301E0C70195DFBE016D5E7F4FC80190DFCE0170
S11301F00196B8DFCE010796B5DFCE010D96B2DFCA
S1130200CE014396AFDF80E075DF00E010E00AC066
S1130210E1E0F0E0EC0FFD1FE00FF11F808171DFE2
S11302200F5F1F4F063011059CF386E56ADF89E0F6
S113023061DF00E010E00AC0E7E0F0E0EC0FFD1F32
S1130240E00FF11F80815DDF0F5F1F4F0630110546
S11302509CF386E556DF80E44DDF00E010E00AC041
S1130260EDE0F0E0EC0FFD1FE00FF11F808149DFAE
S11302700F5F1F4F063011059CF381E442DF89E4D0
S113028039DF00E010E00AC0E3E1F0E0EC0FFD1F0D
S1130290E00FF11F808135DF0F5F1F4F063011051E
S11302A09CF381E42EDF68960FB6F894DEBF0FBE90
S11302B0CDBFDF91CF911F910F91FF90EF90DF9011
S11302C0CF900895C0DEC4DEC9DE87E085B9DEDEE6
S11302D0ECE6F0E0808184608083E8E6F0E08081F1
S11302E08260808320E030E040ED57E060E070E021
S11302F080E29EE456DFF6CF1F920F920FB60F9264
S113030011248F93229984B1229984B18F910F90F3
S11303100FBE0F901F901895AA1BBB1B51E107C07D
S1130320AA1FBB1FA617B70710F0A61BB70B881F81
S1130330991F5A95A9F780959095BC01CD01089510
S113034097FB072E16F4009406D077FD08D0E4DF5F
S113035007FC05D03EF4909581959F4F08957095C4
S10D036061957F4F0895F894FFCFD4
S9030000FC
