:1000000019C020C01FC01EC01DC01CC01BC01AC00C
:1000100019C018C017C016C015C014C013C012C034
:1000200011C010C00FC00EC00DC00CC00BC00AC064
:1000300009C008C011241FBECFEFD2E0DEBFCDBF84
:100040003BD069C0DDCF88ED86BF10926100089576
:1000500087E081B915B88FEF89B9089589E08DB926
:1000600081E58CBD08958EBD0DB407FEFDCF0895CA
:100070000F93082F613089F4E5B121E030E040E0D2
:1000800050E060E070E080E090E02CD0E22BE5B939
:1000900086B12095282326B90DC0E5B121E030E0D6
:1000A00040E050E060E070E080E090E01BD0209500
:1000B000E223E5B90F910895C6DFCADFCFDF61E023
:1000C00080E0D6DF82E4CFDF89E6CDDF82E6CBDFDA
:1000D00082E6C9DF8CE6C7DF85E6C5DF60E080E049
:1000E000C7DFEDCF0F93083090F0982F872F762F32
:1000F000652F542F432F322F22270850F4CF220F81
:10010000331F441F551F661F771F881F991F0A95AD
:0A011000B2F70F910895F894FFCFA5
:00000001FF
