S0130000506F776572537570706C792E7372656377
S113000019C020C01FC01EC01DC01CC01BC01AC008
S113001019C018C017C016C015C014C013C012C030
S113002011C010C00FC00EC00DC00CC00BC00AC060
S113003009C008C011241FBECFEFD2E0DEBFCDBF80
S11300407ED0ADC0DDCF88ED86BF109261000895EB
S113005087E081B915B88FEF89B9089589E08DB922
S113006081E58CBD08958EBD0DB407FEFDCF0895C6
S11300700F93082F613089F4E5B121E030E040E0CE
S113008050E060E070E080E090E070D0E22BE5B9F1
S113009086B12095282326B90DC0E5B121E030E0D2
S11300A040E050E060E070E080E090E05FD02095B8
S11300B0E223E5B90F91089582B1846082B982E0A8
S11300C08A95F1F700C082B18B7F82B98AE68A955E
S11300D0F1F700C00895CF9382B18D7F82B982B1C8
S11300E08E7F82B982B18B7F82B98FE295E70197C7
S11300F0F1F700C00000C8E3CAB9DEDF8FE097E281
S11301000197F1F700C00000CAB9D6DF87EC90E090
S11301100197F1F700C00000CAB9CEDF8CE08AB9BC
S1130120CBDF87E08AB9C8DF81E08AB9C5DF8FE910
S11301309FE00197F1F700C00000CF91089583DF9D
S113014087DF8CDFC8DF61E080E092DF82E48BDF51
S113015089E689DF82E687DF82E685DF8CE683DF56
S113016085E681DF60E080E083DFEDCF0F93083028
S113017090F0982F872F762F652F542F432F322FEF
S113018022270850F4CF220F331F441F551F661F28
S1130190771F881F991F0A95B2F70F910895F89455
S10501A0FFCF8B
S9030000FC
